S01B0000323536306972636C6F6E657270726F6772616D2E73726563E6
S113000071C000008EC000008CC000008AC00000D7
S113001088C0000037C1000084C0000082C0000016
S113002080C000007EC000007CC000007AC00000D8
S113003078C0000076C0000074C0000072C00000E8
S113004070C000006EC000006CC000006AC00000F8
S113005068C0000066C0000064C0000062C0000008
S113006060C000005EC000005CC000005AC0000018
S113007058C0000056C0000054C0000052C0000028
S113008050C000004EC000004CC000004AC0000038
S113009048C0000046C0000044C0000042C0000048
S11300A040C000003EC000003CC000003AC0000058
S11300B038C0000036C0000034C0000032C0000068
S11300C030C000002EC000002CC000002AC0000078
S11300D028C0000026C0000024C0000022C0000088
S11300E020C0000011241FBECFEFD1E2DEBFCDBF80
S11300F000E00CBF12E0A0E0B2E0E0E7F8E000E0CE
S11301000BBF02C007900D92A030B107D9F722E0CF
S1130110A0E0B2E001C01D92AB30B207E1F77FD19D
S1130120A5C36ECF04C0615071098109910961159D
S1130130710581059105B9F70895AF92BF92CF92E9
S1130140DF92EF92FF920F931F93CF93DF93009769
S113015089F16894AA24A6F80F2EF2E4BF2EF02D9C
S11301600F2EFFE0CF2EF02DD12CE12CF12C00E04E
S113017010E0282F392F40E050E060E070E080E08C
S113018090E0C5D20F2EF6E0AF2EF02DB12CC12C8D
S113019011D3215C3D4B404F5F4F6F4F7F4F8F4FCB
S11301A09F4F17D220E034E244E759E47ED1E5D1F1
S11301B0B9DF05C061E070E080E090E0B3DFDF917B
S11301C0CF911F910F91FF90EF90DF90CF90BF9050
S11301D0AF900895AF92BF92CF92DF92EF92FF92C9
S11301E00F931F93CF93DF93009789F16894AA2408
S11301F0A6F80F2EF2E4BF2EF02D0F2EFFE0CF2E27
S1130200F02DD12CE12CF12C00E010E0282F392F17
S113021040E050E060E070E080E090E078D20F2EA3
S1130220F6E0AF2EF02DB12CC12CC4D229513C4F95
S11302304F4F5F4F6F4F7F4F8F4F9F4FCAD120E07B
S113024030E04AE754E431D198D16CDF05C061E075
S113025070E080E090E066DFDF91CF911F910F9115
S1130260FF90EF90DF90CF90BF90AF9008952FB1A3
S113027030E0A90102C0559547958A95E2F7CA0175
S1130280817008951F920F920FB60F9211240BB62E
S11302900F92CF92DF92EF92FF922F933F934F935F
S11302A05F936F937F938F939F93AF93BF93EF93DA
S11302B0FF938091040291E0980F9093040291308F
S11302C099F484E2D4DF81110CC081E080930502AB
S11302D01092000210920102109202021092030284
S11302E044C01092050241C081508F3118F5C0906E
S11302F00002D0900102E0900202F0900302CC0CC4
S1130300DD1CEE1CFF1CC0920002D0920102E092A0
S11303100202F092030284E2AADF882331F1689496
S1130320C0F8C0920002D0920102E0920202F09260
S113033003021BC09132C8F080910502882399F012
S11303408091000290910102A0910202B0910302F7
S11303508093060290930702A0930802B0930902C7
S113036081E080930A0210920402FF91EF91BF9101
S1130370AF919F918F917F916F915F914F913F9139
S11303802F91FF90EF90DF90CF900F900BBE0F90C6
S11303900FBE0F901F901895AF92BF92CF92DF922D
S11303A0EF92FF920F931F93CF93DF936B017C0126
S11303B0A59A8AE190E0C1DEA5988AE190E0BDDECD
S11303C0CFE1D0E008E010E06894AA24A4F8B12CAE
S11303D0A59AD701C6010C2E04C0B695A79597958A
S11303E087950A94D2F780FD03C08A2D9B2D02C005
S11303F0802F912FA2DEA598802F912F9EDE21972A
S113040038F780ED97E099DEDF91CF911F910F913E
S1130410FF90EF90DF90CF90BF90AF90089525D0DC
S113042043D06C98749A6D9A9D9AEAE6F0E08081C4
S113043082608083EC9A7894C0E280910A028823D7
S1130440E1F3CCB984EF91E0C5DECCB984EF91E05F
S1130450C1DE6091060270910702809108029091BA
S113046009029ADF10920A02E8CFCF93DF931F921A
S1130470CDB7DEB78FEF80936400809365008091E1
S11304806100833069F08FB78983F89489815F9321
S113049050E85093610053E0509361005F918FBF27
S11304A00F90DF91CF91089508950CD0E7C0DFD06D
S11304B040F0D6D030F021F45F3F19F0C8C051119C
S11304C011C1CBC0ECD098F39923C9F35523B1F3F0
S11304D0951B550BBB27AA2762177307840738F0AF
S11304E09F5F5F4F220F331F441FAA1FA9F333D00E
S11304F00E2E3AF0E0E830D091505040E695001CC2
S1130500CAF729D0FE2F27D0660F771F881FBB1F7D
S1130510261737074807AB07B0E809F0BB0B802D57
S1130520BF01FF2793585F4F2AF09E3F510568F0A3
S11305308EC0D8C05F3FECF3983EDCF38695779588
S11305406795B795F7959F5FC9F7880F911D9695A5
S1130550879597F90895E1E0660F771F881FBB1F01
S1130560621773078407BA0720F0621B730B840BAE
S1130570BA0BEE1F88F7E095089599D088F09F573D
S113058090F0B92F9927B751A0F0D1F0660F771FDB
S1130590881F991F1AF0BA95C9F712C0B13081F0BB
S11305A0A0D0B1E008959DC0672F782F8827B85F49
S11305B039F0B93FCCF3869577956795B395D9F71C
S11305C03EF490958095709561957F4F8F4F9F4F26
S11305D00895E894F92F96EBFF2381F01216130681
S11305E01406440B9395F6958795779567955795DB
S11305F04040FF23B9F71BC099270895882351F47D
S11306009850D2F7872B762F652F542F432F322FF4
S113061020E0B1F3121613061406440B88233AF0B3
S11306209A95440F551F661F771F881FCAF75523D5
S11306304AF4440F551F11F460FF04C06F5F7F4FED
S11306408F4F9F4F880F9695879597F9089597F93F
S11306509F6780E870E060E008959FEF80EC089564
S113066000240A941616170618060906089500248D
S11306700A9412161306140605060895092E039407
S1130680000C11F4882352F0BB0F40F4BF2B11F47B
S113069060FF04C06F5F7F4F8F4F9F4F089557FDDA
S11306A09058440F551F59F05F3F71F04795880FDC
S11306B097FB991F61F09F3F79F087950895121673
S11306C013061406551FF2CF4695F1DF08C016161F
S11306D017061806991FF1CF8695710561050894D0
S11306E00895E894BB2766277727CB0197F90895E7
S11306F0A29FB001B39FC001A39F700D811D11245F
S1130700911DB29F700D811D1124911D0895DF93D9
S1130710CF931F930F939A9DF02D219FF00D8B9DE6
S1130720F00D8A9DE02DF10D039FF00D029FE00D69
S1130730F11D4E9DE00DF11D5E9DF00D4F9DF00DE0
S11307407F936F93BF92AF925F934F93D501D0DFA6
S11307508B01AC01D701CCDFEB01E80FF91FD60107
S11307601FD02F913F91D601C3DFC60FD71FE81FBB
S1130770F91FAF91BF9114D02F913F91B9DFC60FEC
S1130780D71FE81FF91FD601B3DFE60FF71F980143
S1130790BE01CF0111240F911F91CF91DF910895D4
S11307A0A7DF460F571FC81FD91F08F431960895B5
S11307B0689401C0E8948F929F92CF93DF9305D001
S11307C0DF91CF919F908F90089588249924F4010C
S11307D0E401B0E49F93AA279A158B049C04ED05C9
S11307E0FE05CF05D007A10798F4AD2FDC2FCF2F3E
S11307F0FE2FE92D982C892E982F872F762F652F81
S1130800542F432F322F2227B85031F7BF9127C0DE
S11308101B2EBF91BB27220F331F441F551F661F7A
S1130820771F881F991F881C991CEE1FFF1FCC1F60
S1130830DD1FAA1FBB1F8A149B04EC05FD05CE0512
S1130840DF05A007B10748F08A189B08EC09FD09E9
S1130850CE09DF09A00BB10B21601A94E1F62EF446
S11308609401AF01BE01CD01000C0895F894FFCFAF
S9030000FC
